:020000040000fa
:080000000004040000000000f0
:020000040000fa
:100800002fe02000007f240000018800000000008d
:100810000c000700a0d120000100200011000700fb
:10082000000020000000e000020032000000020092
:1008300000000000ee050200000000000040da00a9
:100840000000fe004440a900400f20000000e0002e
:100850000300320000002000a00188004440a800ee
:100860000000060091018800800078000000eb0085
:1008700015003700e280400032a0b4009101ba00b8
:10088000e280400032a0b4009102ba00e280400051
:1008900032a0b4000002eb00472bde00f507b200e7
:1008a000602ce10004003a000059eb008301e900ec
:1008b000fdff3e00040037006128e1000100320026
:1008c0000082eb00040007001101ba000200e00002
:1008d000e8ff3a00000006003159ba008301e90040
:1008e0000c0032002159ba008301e90008003200ef
:1008f0000400e00003003a00e280400032a0b400af
:10090000f5ff370011d9ba008301e900faff3a0078
:100910008100e800e180400032a0b4000000060041
:1009200021108800301088000000060006c2bf00b9
:100930000008a300fdff3a0006c2bf000028a30084
:10094000faff3a0006c2bf000038a300f7ff3a00e2
:1009500006c2bf000018a300f4ff3a0006c2bf00a1
:100960000048a300f1ff3a0009c2bf000068a300dd
:10097000eeff3a00000006000602a8000000060094
:100980000080fb00101088000080eb000842e200ad
:100990000800350009c2bf000068a300fdff3a004f
:1009a000e2ff0700e0ff2f000942e20001003500ee
:1009b0000000eb00000006000642a8000000060050
:1009c0000622a800000006000662a80006c2bf00ba
:1009d0000038a300fdff3a0008c2a9000010800003
:1009e0000080fb000000060006a2a8000682a80006
:0409f00000000600fd
:020000040000fa
:0200000401f009
:04000000ffff0000fe
:020000040000fa
:0200000401f009
:04000400ffff0000fa
:020000040000fa
:0200000401f009
:04000800ffff0000f6
:020000040000fa
:0200000401f009
:04000c0079ff000078
:020000040000fa
:0200000401f009
:040010009bff000052
:020000040000fa
:0200000401f009
:040014007fff00006a
:020000040000fa
:0200000401f009
:04001800eeff0000f7
:020000040000fa
:0200000401f009
:04001c00deff000003
:020000040000fa
:10000800220d0000220d0000220d0000220d00002c
:10001800220d0000220d0000220d0000220d00001c
:10002800220d0000220d0000220d0000220d00000c
:10003800220d0000220d0000220d0000220d0000fc
:020000040000fa
:020000040000fa
:1009f400202000002a2a00002a200000754200005e
:100a040052440000202a00002a2a00000a62000042
:100a14006f6f0000746c00006f610000646500007b
:100a240072200000563100002e30000000520000f9
:100a34006561000064790000207400006f200000ec
:100a4400707200006f670000726100006d2000008a
:100a54002020000020200000202000002020000092
:100a640009200000202000002020000009200000b0
:100a7400202000002009000009090000206f000068
:100a84007220000070720000657300007320000083
:100a940062750000747400006f6e00000052000064
:100aa40065610000646900006e670000205000006a
:100ab4004d0a000030780000005700007269000001
:100ac400746900006e670000205000004d0a0000a9
:100ad400307800000041000074740000656d00006f
:100ae40070740000207400006f2000006f76000016
:100af400657200002d20000020200000202000004e
:100b040020200000202000000920000020200000f8
:100b140020200000092000002020000020090000ff
:100b24000909000020770000726900007465000064
:100b3400206200006f6f0000746c00006f610000a1
:100b440064650000720000005772000069740000c0
:100b540065200000636100006e630000656c0000a6
:100b64006c650000642000002020000020200000ac
:100b74002020000020200000200900002020000088
:100b84002020000020090000202000002020000078
:100b94000909000009200000526500007374000078
:100ba40061720000746900006e6700002e2e000060
:100bb4002e0000005772000069740000696e000086
:100bc40067200000434d000000520000756e0000d5
:080bd4002e2e00002e0000008f
:020000040000fa
:100bdc002200fa0012010700a04f2800f9020700ba
:100bec00c05d20003a03070090512800f502070071
:100bfc000000370000002800eb01070066004700ea
:100c0c00370107006e4090000000fb0000179800b1
:100c1c000e109000e30f50002d0032000e109000cb
:100c2c00e30f500007003c000e1090000000e000a5
:100c3c00ed0032000e109000e20f50000b0032005d
:100c4c00f20037000e109000e80f5000b400320094
:100c5c000e109000e90f50006e0032000e10900044
:100c6c00e70f500086003200e80037000000240037
:100c7c00cd01070010552800d2020700680047007c
:100c8c0017010700680047000000e8001401070086
:100c9c00680047000080e800110107000040eb00ed
:100cac00304f98004e009000de009000fe020700ce
:100cbc004e019000de019000008020001c01070016
:100ccc0001602000008020003f010700c9ff3700b1
:100cdc0000002200b4010700f0552800b9020700fb
:100cec006c004700fe0007006c0047000000e800a5
:100cfc00fb0007006c0047000080e800f8000700cc
:100d0c000040eb00704f98006e009000fe009000c9
:100d1c00e50207006e019000fe019000f03f2000fc
:100d2c0001002000800f5100818f59001100360006
:100d3c006e019000fe019000f0ff200001002000e9
:100d4c00800f5100818f59000a003e00d0562800b8
:100d5c009c020700c05d2000dd0207006d02070049
:100d6c00605a280097020700c05d2000d8020700d7
:100d7c00a0ff37000000eb002007980008003700a8
:100d8c002e00900080007800008020000080400041
:100d9c00d30007002e0090000000e8002007980008
:100dac00ae009000f05f2000808f5000f4ff340004
:100dbc006e019000fe019000f03f20000100200029
:100dcc00800f5100818f5900070036006e01900092
:100ddc00fe019000f0ff200001002000800f510068
:100dec00818f590008003600ee0090007e009000c4
:100dfc0022042400fd0207006e019000fe01900009
:100e0c00008020000c01070010c0b3000001070097
:100e1c0078ff37000000210063010700000020006c
:100e2c00f10f2000000f9800110f98008e08900011
:100e3c001e089000e6020700200f9800310f980062
:100e4c007400470041002000df0007002000200054
:100e5c00f10f2000000f9800110f98008e089000e1
:100e6c001e089000da020700200f9800310f98003e
:100e7c007400470041002000d30007005dff3700dd
:100e8c000080200048010700c05d28004d020700cb
:100e9c000000eb00100798001d0037001e009000aa
:100eac008000780000802000808040001e009000b0
:100ebc000000e80010079800010078008800070087
:100ecc001e00900080007800008020008080400090
:100edc001e0090000000e800100798000100780048
:100eec007f0007001e00900080007800008020002a
:100efc00808040001e0090000000e8001007980061
:100f0c00010078007600070010c0b300c000070095
:100f1c001e009000f70f5000e0ff340035ff370043
:100f2c000040200020010700705e28002502070009
:100f3c00401f2000660207000000eb00000f780045
:100f4c0000002000810f2000400f9800510f9800e6
:100f5c001f0037009e0078000080200000804000b9
:100f6c00104078000004e00011003a009e00e800f8
:100f7c00008020000080400010407800405f980006
:100f8c009e80e80000802000008040001040780027
:100f9c00505f98006e0890007e099000ce0890007b
:100fac005e0a90008001780004007800840207003b
:100fbc001e007800630f40004e089000de08900081
:100fcc0062004000e0804800400f9800510f9800ec
:100fdc00700120009e0f1000deff3400cd010700d1
:100fec007f02070003ff370000202000ee000700ff
:100ffc00705e2800f3010700401f20003402070038
:10100c00c401070076020700fafe3700001020002a
:10101c00e50007000040eb007d000700f5fe3700ff
:10102c000000fa0050012000403a880060022000c5
:10103c00303a880044c7bf00f043b20044e7b70021
:10104c00417420009140780000ceb30000c06000d5
:10105c0044e7b700c042a900c062a900c082a90041
:10106c00c8a2a800c8c2a800c922a800c902a90029
:10107c000020210010368800300120002036880026
:10108c0000402100303688003000200040368800b7
:10109c000050210050368800416a200091407800b1
:1010ac0000ceb30000c060009040b300a4e6b700cf
:1010bc0010802800001188000040200010118800ca
:1010cc0040012000401188000000eb00b600070032
:1010dc00d0000700960107000080fa00000006000f
:1010ec000200fa00000f78000700370041010700ea
:1010fc000004e000040032009e0078000040eb0089
:10110c00804878000400370022c2bf0061406000b4
:10111c000004e000f5ff32003011800080407800c0
:10112c001e007800014878000080fa0000000600dc
:10113c000c00fa00300798004207980053079800fb
:10114c000000eb00000f78001a003700ce00900072
:10115c005e0090001e0207001007980021079800ff
:10116c00ce4090003e009000014878003e00900078
:10117c008000e8003e409000804878003e009000df
:10118c008080e8002e409000804878003e0090005f
:10119c0063004000300798004e009000de00900085
:1011ac0062004000e080480040079800510798001a
:1011bc001e0fe800f01f20009e0f1000e3ff34000c
:1011cc000080fa00000006000600fa0010079800e4
:1011dc00210798000000eb00000f78000700370093
:1011ec001e007800800078001e00900000804000f7
:1011fc0010407800060007001e0fe8002e0090003b
:10120c009e0f1000f6ff35000080fa00000006006b
:10121c000200fa00004f780023c2bf006240600059
:10122c000004e000fcff3a001e00fb0020118800c7
:10123c000080fa00000006001600fa00000f98006b
:10124c00120f9800230f98000000eb001007980075
:10125c000000eb00000f78004d0037001e007800f6
:10126c00800078000e08900000804000104078004c
:10127c00404798009e0078000e08900000804000c7
:10128c000000e80010407800504798009e0078005d
:10129c000e089000008040000080e80010407800ac
:1012ac00604798000040eb00704798001e007800e3
:1012bc00630f40002e0090003e0190009e089000ad
:1012cc002e0a90008001780004007800bc01070011
:1012dc001e089000ae0890007f0160006000b8000e
:1012ec000300200002007000838070008201200047
:1012fc0003002000820f5000838f580008003a0032
:10130c001e089000ae089000400798005107980006
:10131c002e009000be0090006007980071079800a6
:10132c001e0090000000e000100032001e00900033
:10133c000000e80080007800f003200000806000ce
:10134c000000e00009003a006e0090007e01900061
:10135c00ce0090005e0290008001780004007800be
:10136c0097010700100024008a0107001e08900056
:10137c00ae08900062004000e0804800100f98001a
:10138c00210f98001e0090000000e8001007980044
:10139c009e009000f01f2000808f5000afff3400a3
:1013ac000080fa00000006000400fa001007980004
:1013bc00c462a900c482a9000040eb00004f780071
:1013cc000d003700c462a800c462a9001e00900082
:1013dc00610060000004e00002003200c442a8007a
:1013ec0001003700c442a9001e0090000000d1008b
:1013fc00100798001e4fe80000c1b3009e4f10006c
:10140c00f0ff3600c482a800c482a9000080fa0054
:10141c00000006000400fa000019200010079800d4
:10142c0000222800000f78009e0090001e0078001b
:10143c0038fd07003afd070081c7b300a0c0b30018
:10144c001a0007008040eb00c0c0b3001700070073
:10145c00f1c1b300d0c0b300140007008040eb0012
:10146c0020c0b300110007008040eb0030c0b30077
:10147c000e0007008040eb0020c1b3000b000700fa
:10148c008040eb0030c1b300080007008040eb0047
:10149c000040eb0005000700f1c1b30010c0b30021
:1014ac00020007000080fa00000006000200fa00ab
:1014bc00004f7800114798009e4090001e40780025
:1014cc000a0007000080fa00000006000400fa0081
:1014dc00204798002e4090001c000700004f780019
:1014ec001e80fb000080fa00000006000200fa00db
:1014fc00004f7800114798001cfd070006c2bf0082
:10150c00614060000004e000fcff3a0000c4b3003e
:10151c0018fd0700270007001e40780015fd070086
:10152c00240007001e40900012fd07002100070058
:10153c001efd070006c2bf00644060000004e0000e
:10154c00fcff3a000080fa00000006000400fa00dc
:10155c002047980005fd070006c2bf0061406000ef
:10156c000004e000fcff3a0000c4b30001fd0700da
:10157c00100007002e409000fefc07000d00070035
:10158c000cfd0700e6fc070010c4b300f9fc0700d3
:10159c000800070009fd0700004f78000ffd070049
:1015ac0002fd0700defc07001e80fb000080fa0035
:1015bc00000006000000fa0008c2bf006140600095
:1015cc000004e000fcff3a0009c2bf000044b20076
:1015dc000004e000fcff3a0009c2bf0001c8b300e0
:1015ec00014060000004e000fbff3a000080fa00bc
:1015fc00000006000400fa0030c1b300b3ff07007e
:10160c000080fb00100798000000eb00000f780032
:10161c001e0090004400de00610060000000e0004d
:10162c0001003a001e00a0001e0090004300de00e6
:10163c00610060000000e00001003a001e10a000f4
:10164c001e0090004200de00610060000000e0001f
:10165c0001003a001e20a0001e0090000000d100e6
:10166c00610060000000e00001003a001e30a000a4
:10167c001e009000610060000000e00001003a00d4
:10168c001e40a0001e0078000080fb000080fa00c5
:10169c00000006000200fa00004f780001c4b300fd
:1016ac0030c1b30081ff07009e40780020c1b30019
:1016bc007eff07008040eb0030c1b3007bff0700ca
:1016cc000080fa00000006000200fa00004f7800cb
:1016dc00a0c0b3009e4f100003003a0000ccb30032
:1016ec00ecff07000900370001ccb30030c1b30098
:1016fc006eff07009e40780020c1b3006bff07000f
:10170c0001c8b30030c1b30068ff07000080fa00c5
:10171c00000006000000fa0010c0b300ddff070057
:10172c0060c0b300dbff07000080fa000000060079
:10173c000000fa00f7ff0700f0002000640007002b
:10174c0000c3b300d3ff0700500020006000070067
:10175c0000c3b300cfff0700100020005c0007009f
:10176c0000c3b300cbff0700100020005800070097
:10177c0080c3b300c7ff070010002000540007000f
:10178c0080c1b300c3ff0700c0c0b300c1ff070096
:10179c0010c0b300bfff070060c0b300bdff07005f
:1017ac000080fa00000006000000fa0080c0b300c0
:1017bc00b8ff070010002000450007000080fa0069
:1017cc00000006000200fa00000f7800d1ff0700ad
:1017dc001e007800020007000080fa0000000600de
:1017ec000200fa00000f7800040037001e00780099
:1017fc00104078001e0fe800b3ff07001e007800b1
:10180c00104078000004e000f8ff3a000080fa0075
:10181c00000006000200fa00004f78001e4078001d
:10182c006f4060000043b000004f780090c3b300dd
:10183c009e4f1000040036001e40780067404000a8
:10184c0010479800020037001e407800104798009f
:10185c001e4090009cff07000080fa00000006006c
:10186c000200fa00004f78001e80fb004400de00ee
:10187c00e8ff07001e407800e6ff07000080fa0032
:10188c00000006000200fa00000f78001e0078002d
:10189c004800de00f2ff07001e007800f0ff070092
:1018ac000080fa00000006000400fa00008fbe0061
:1018bc001e00be004008de0001002000f1ff070002
:1018cc001e007800efff07000080fa000000060001
:1018dc000600fa00200798000c00370090e2200068
:1018ec0001002000008fbe00040037000080eb00d8
:1018fc008080eb001e0f40005e9748001e00be006b
:10190c00e00f5000e08f5800f8ff3a002e009000d6
:10191c000000e900200798002e009000e10f400025
:10192c00eeff3a000080fa00000006000600fa0004
:10193c00200798000c003700400020000100200018
:10194c00008fbe00040037000080eb008080eb00ad
:10195c001e0f40005e9748001e00be00e00f5000b6
:10196c00e08f5800f8ff3a002e0090000000e900cc
:10197c00200798002e009000e10f4000eeff3a0087
:10198c000080fa00000006009001880081007800b9
:10199c0000000600003b880050052000303b88000a
:1019ac00a00a2000303b880061e7a800000000007e
:1019bc000000000061e7af00feff370000000600ea
:1019cc00900188008308bb008288bb0000000600e1
:1019dc00900188001100ba009180ba000000060046
:1019ec000210040000000000000006003200f800a5
:1019fc00023b8800900188008108bb005005200044
:101a0c00303b8800a00a2000303b880061e7a8002a
:101a1c00000000000000000061e7af00feff37008f
:081a2c003200f9000000060081
:020000040000fa
:101a34000008000002060000000000000000000092
:020000040000fa
:041a44000000fe00a0
:00000001FF
