:020000040000fa
:080000000210040000000000e2
:020000040000fa
:10200000140000002f802000807e24000001880042
:10201000000000000c000700206f210001002000dc
:1020200011000700000020000000e0000200320064
:102030000000020000000000d812020000000000b2
:102040000040da000000fe004440a90060092000c2
:102050000000e0000300320000002000a001880022
:102060004440a8000000060091018800800078002c
:102070000000eb0015003700e280400032a0b40001
:102080009101ba00e280400032a0b4009102ba008f
:10209000e280400032a0b4000002eb00472bde00db
:1020a000f507b200602ce10004003a000059eb0093
:1020b0008301e900fdff3e00040037006128e100d4
:1020c000010032000082eb00040007001101ba0099
:1020d0000200e000e8ff3a00000006003159ba00b3
:1020e0008301e9000c0032002159ba008301e900a4
:1020f000080032000400e00003003a00e2804000e3
:1021000032a0b400f5ff370011d9ba008301e9000d
:10211000faff3a008100e800e180400032a0b400fc
:102120000000060021108800301088000000060022
:1021300006c2bf000008a300fdff3a0006c2bf00b0
:102140000028a300faff3a0006c2bf000038a3002f
:10215000f7ff3a0006c2bf000018a300f4ff3a00e0
:1021600006c2bf000048a300f1ff3a0009c2bf0049
:102170000068a300eeff3a00000006000602a80077
:10218000000006000080fb00101088000080eb00bb
:102190000842e2000800350009c2bf000068a30041
:1021a000fdff3a00e2ff0700e0ff2f000942e200d6
:1021b000010035000000eb00000006000642a80008
:1021c000000006000622a800000006000662a80023
:1021d00006c2bf000038a300fdff3a0008c2a900f4
:1021e000001080000080fb000000060006a2a8008e
:0821f0000682a80000000600b1
:020000040000fa
:0200000401f009
:04000000ffff0000fe
:020000040000fa
:0200000401f009
:04000400ffff0000fa
:020000040000fa
:0200000401f009
:04000800ffff0000f6
:020000040000fa
:0200000401f009
:04000c0079ff000078
:020000040000fa
:0200000401f009
:040010009bff000052
:020000040000fa
:0200000401f009
:040014007fff00006a
:020000040000fa
:0200000401f009
:04001800eeff0000f7
:020000040000fa
:0200000401f009
:04001c00deff000003
:020000040000fa
:100008000217000002170000021700000217000084
:100018000217000002170000021700000217000074
:100028000217000002170000021700000217000064
:100038000217000002170000021700000217000054
:020000040000fa
:020000040000fa
:1021f800754200006f61000072640000206d0000ed
:10220800616900006e6200006f6100007264000086
:1022180020200000202000002020000020200000b6
:1022280020200000202000002020000020200000a6
:102238002020000020200000202000002020000096
:1022480020200000646500006d6f00002070000011
:10225800726f000067720000616d0000000a0000e4
:102268000d0000002a2a00002a2a00002a2a00005d
:102278002a2a00002a2a00002a2a00002a2a000006
:102288002a2a00002a2a00002a2a00002a2a0000f6
:102298002a2a00002a2a00002a2a00002a2a0000e6
:1022a8002a2a00002a2a00002a2a00002a2a0000d6
:1022b8002a2a00002a2a00002a0a00000d0000002d
:1022c8002a200000b5420000524400003a200000d5
:1022d8006473000050490000433300003346000097
:1022e800363400004750000038300000322000002b
:1022f80064650000766500006c6f0000706d00007a
:10230800656e000074200000626f000061720000ba
:0c231800642000002a0a00000d000000f4
:020000040000fa
:102324000600fa00200798000c00370090e2200015
:1023340001002000008fbe00040037000080eb0085
:102344008080eb001e0f40005e9748001e00be0018
:10235400e00f5000e08f5800f8ff3a002e00900084
:102364000000e900200798002e009000e10f4000d3
:10237400eeff3a000080fa00000006000600fa00b2
:10238400200798000c0037004000200001002000c6
:10239400008fbe00040037000080eb008080eb005b
:1023a4001e0f40005e9748001e00be00e00f500064
:1023b400e08f5800f8ff3a002e0090000000e9007a
:1023c400200798002e009000e10f4000eeff3a0035
:1023d4000080fa00000006000400fa000019200042
:1023e4001007980000222800000f78009e0090003b
:1023f4001e0078004aff07004cff070081c7b300a6
:10240400a0c0b300200207008040eb00c0c0b300ae
:102414001d020700f1c1b300d0c0b3001a020700c7
:102424008040eb0020c1b300170207008040eb009e
:1024340030c1b300140207008040eb000040eb0001
:1024440011020700f1c1b30010c0b3000e0207006f
:102454000080fa00000006000200fa00004f780035
:1024640001c4b30030c1b300070207009e407800e6
:1024740020c1b300040207008040eb0030c1b30068
:10248400010207000080fa00000006000200fa00c2
:10249400004f780001ccb30030c1b300fa0107004b
:1024a4009e40780020c1b300f701070001c8b300c3
:1024b40030c1b300f40107000080fa0000000600f8
:1024c4000000fa0010c0b300e3ff07000080fa0028
:1024d400000006000000fa00f9ff0700f0002000e9
:1024e4008fff070000c3b300dbff0700500020008c
:1024f4008bff070000c3b300d7ff070010002000c4
:1025040087ff070000c3b300d3ff070010002000bb
:1025140083ff070080c3b300cfff07001000200033
:102524007fff070080c1b300cbff0700c0c0b3002a
:10253400c9ff070010c0b300c7ff070060c0b300a5
:10254400c5ff07000080fa00000006003800fa000a
:102554000e00e800c10f2900360009003158780048
:102564007003b1000040eb00004f78000500370015
:102574001e80fb008e00e80060c07800c3ff0700e7
:102584001e4fe8001e80fb008e00e80060c078004b
:102594000004e000f6ff3a00007d200060ff070021
:1025a400c7ff07000080fa00000006000200fa00de
:1025b4000000eb00000f7800310107003013290000
:1025c40014000700601329001200070040162900b8
:1025d40010000700601329000e0007009700070091
:1025e40084c0bf00704060000004e000fcff3200c3
:1025f4008480a900807f2400b0009000010f78003f
:102604001e00780072000700bc000700d900070014
:10261400f2ff37000200fa00000f780004003700d0
:102624001e007800104078001e0fe8000600070026
:102634001e007800104078000004e000f8ff3a0023
:102644000080fa00000006000200fa00004f780043
:1026540023c2bf00624060000004e000fcff3a00b7
:102664001e00fb00201188000080fa000000060014
:102674000600fa00000f78001e0078006101b9001e
:102684001207980023079800000120000100200091
:102694001e019000ae019000800f5100818f5900ff
:1026a40047003e001e009000ae0090000060010054
:1026b40010003700120037001400370016003700ee
:1026c400180037001a0037001c0037001e003700be
:1026d400200037002200370024003700260037008e
:1026e400280037002a0037002c0037002e0037005e
:1026f400300037000000eb003500070032003700df
:1027040000002800320007002f00370000002a00d4
:102714002f0007002c00370000802a002c0007003f
:102724002900370000a02a002900070026003700ee
:1027340000a82a00260007002300370000aa2a0068
:10274400230007002000370080aa2a002000070089
:102754001d003700a0aa2a001d0007001a00370038
:10276400000024001a0007001700370000002500ad
:10277400170007001400370000402500140007006c
:102784001100370000502500110007000e0037002b
:10279400005425000e0007000b00370000552500eb
:1027a4000b0007000800370040552500080007000b
:1027b40005003700505525000500070002003700ca
:1027c4000080eb00020007000080fa000000060011
:1027d4000400fa0010079800c462a900c482a9008a
:1027e4000040eb00004f78000d003700c462a800e1
:1027f400c462a9001e009000610060000004e000b3
:1028040002003200c442a80001003700c442a900fb
:102814001e0090000000d100100798001e4fe80031
:1028240000c1b3009e4f1000f0ff3600c482a80020
:10283400c482a9000080fa00000006000200fa0029
:102844000000eb00000f78000000eb00000f7800a0
:10285400050037001e00780085ff070040062000b1
:10286400affe07001e0fe800700020009e0f10004e
:10287400f8ff340080002000000f780005003700c6
:102884001e0078007aff070040062000a4fe07001f
:102894001e0fe9001e00e000f9ff3c00900020003c
:1028a400000f7800050037001e00780070ff070055
:1028b400400620009afe07001e0fe800f0002000ea
:1028c4009e0f1000f8ff340000012000000f780074
:1028d400050037001e00780065ff07004006200051
:1028e4008ffe07001e0fe900800020009e0f1000dd
:1028f400f8ff3c000080fa00000006000000fa0027
:10290400a0002000700888000800370070088000cc
:102914000000d100900c8800700880000000e800de
:10292400700888002003200094fe070071088000ce
:10293400f0ff2100808f5000f4ff360008003700bc
:10294400700880000000d100900c8800700880009e
:102954000000e900700888002003200087fe0700bb
:1029640070088000ea0f5000f5ff3e000080fa0076
:10297400000006000200fa000000eb00000f7800df
:102984000080eb00000c880006003700300c80004b
:102994000000e800300c88001e0fe800a0002000b2
:1029a40076fe0700300c8000e10f4000f7ff3a008c
:1029b40006003700000c80000000e900000c8800cd
:1029c4001e0fe800a00020006cfe0700000c800031
:1029d4000000e000f7ff3a0006003700600c8000ba
:1029e4000000e800600c88001e0fe800a000200032
:1029f40062fe0700600c8000e10f4000f7ff3a0020
:102a040006003700300c80000000e900300c88001c
:102a14001e0fe800a000200058fe0700300c8000c4
:102a24000000e000f7ff3a0006003700000c8000c9
:102a34000000e800000c88001e0fe800a000200041
:102a44004efe0700000c8000e10f4000f7ff3a0043
:102a540006003700600c80000000e900600c88006c
:102a64001e0fe800a000200044fe0700600c800058
:102a74000000e000f7ff3a000080fa0000000600c2
:102a84000000fa0050012000403a88006002200053
:102a9400303a880044c7bf00f043b20044e7b700af
:102aa400417420009140780000ceb30000c0600063
:102ab40044e7b700401f200019fe0700c042a900e8
:102ac400c062a900c082a900c962a900c862a900a5
:102ad400c882a900c8e2a900c8a2a800c8c2a80068
:102ae400c922a800c902a9000020210010368800cc
:102af4003001200020368800004021003036880054
:102b040030002000403688000050210050368800f4
:102b1400416a20009140780000ceb30000c06000fc
:102b24009040b300a4e6b7000001280080088800a4
:102b3400000128009008880060002000200c880014
:102b440060002000500c880060002000800c880089
:102b5400e0002000b00c88000080eb00100c88001e
:102b64000000eb00000c88000080eb00400c8800a3
:102b74000000eb00300c88000080eb00700c880033
:102b84000000eb00600c88000080eb00a00c8800c3
:102b94000000eb00900c88001080280000118800d1
:102ba4000040200010118800100820004011880007
:102bb40000fe2f0060198800c01e21000019880043
:102bc4000000eb00801988003020200020198800c4
:102bd40000202000101988000000eb0090198800e4
:102be4000000eb00301988003000200040198800f4
:102bf40000022000001c880000302000401c8800d7
:102c040040002000501c8800d0002000101c8800c8
:102c1400807f2000201c880081e3a80021e3a80015
:102c24004ba7a9004ae7a8004bc7bf007040b300f8
:102c34004be7b700013f20009140780000c8b30083
:102c440000c060003040b300f0e3b7000000eb00c8
:102c5400a01f8800f103a800f3e3a800f2e3a80092
:102c6400f1e3a8000000eb0081fe0700400620000d
:102c7400abfd0700d8fd070016fe070033fe070072
:102c84000080fa00000006000200fa00004f7800fd
:102c9400114798009e4090001e4078000a000700eb
:102ca4000080fa00000006000400fa0020479800a3
:102cb4002e4090001f000700004f78001e80fb008c
:102cc4000080fa00000006000200fa00004f7800bd
:102cd4001147980028fd070006c2bf00614060004c
:102ce4000004e000fcff3a0001c8bf00018020009e
:102cf400914078000140700021fd07002c0007007e
:102d04001e4078001efd0700290007001e409000a9
:102d14001bfd07002600070027fd070006c2bf00b1
:102d2400644060000004e000fcff3a000080fa0008
:102d3400000006000400fa00204798000efd07007a
:102d4400118020009140780000c8bf0000c07000ce
:102d54000bfd0700160007002e40900008fd070039
:102d64001300070016fd0700118020009140780031
:102d740000c8bf0000c070000004a00000fd0700f0
:102d84000b00070010fd0700004f780016fd070038
:102d940009fd070006c2bf00644060000004e000b3
:102da400fcff3a001e80fb000080fa0000000600d1
:102db4000000fa0009c2bf000044b2000004e000b1
:102dc400fcff3a0009c2bf0001c8b3000140600023
:102dd4000004e000fbff3a000080fa000000060057
:020000040000fa
:102de400f847000008000000000000000008000090
:102df400020000000200000000400000000000008b
:020000040000fa
:042e04000000fe00cc
:00000001FF
