:020000040000fa
:080000000210040000000000e2
:020000040000fa
:10200000040000000f802000007f240000018800f1
:10201000000000000c000700008c210001002000df
:1020200011000700000020000000e0000200320064
:102030000000020000000000a818020000000000dc
:102040000040da000000fe004440a900000020002b
:102050000000e0000300320000002000a001880022
:102060004440a8000000060091018800800078002c
:102070000000eb0015003700e280400032a0b40001
:102080009101ba00e280400032a0b4009102ba008f
:10209000e280400032a0b4000002eb00472bde00db
:1020a000f507b200602ce10004003a000059eb0093
:1020b0008301e900fdff3e00040037006128e100d4
:1020c000010032000082eb00040007001101ba0099
:1020d0000200e000e8ff3a00000006003159ba00b3
:1020e0008301e9000c0032002159ba008301e900a4
:1020f000080032000400e00003003a00e2804000e3
:1021000032a0b400f5ff370011d9ba008301e9000d
:10211000faff3a008100e800e180400032a0b400fc
:102120000000060021108800301088000000060022
:1021300006c2bf000008a300fdff3a0006c2bf00b0
:102140000028a300faff3a0006c2bf000038a3002f
:10215000f7ff3a0006c2bf000018a300f4ff3a00e0
:1021600006c2bf000048a300f1ff3a0009c2bf0049
:102170000068a300eeff3a00000006000602a80077
:10218000000006000080fb00101088000080eb00bb
:102190000842e2000800350009c2bf000068a30041
:1021a000fdff3a00e2ff0700e0ff2f000942e200d6
:1021b000010035000000eb00000006000642a80008
:1021c000000006000622a800000006000662a80023
:1021d00006c2bf000038a300fdff3a0008c2a900f4
:1021e000001080000080fb000000060006a2a8008e
:0821f0000682a80000000600b1
:020000040000fa
:0200000401f009
:04000000ffff0000fe
:020000040000fa
:0200000401f009
:04000400ffff0000fa
:020000040000fa
:0200000401f009
:04000800ffff0000f6
:020000040000fa
:0200000401f009
:04000c0079ff000078
:020000040000fa
:0200000401f009
:040010009bff000052
:020000040000fa
:0200000401f009
:040014007fff00006a
:020000040000fa
:0200000401f009
:04001800eeff0000f7
:020000040000fa
:0200000401f009
:04001c00deff000003
:020000040000fa
:10000800c2180000c2180000c2180000c218000080
:10001800c2180000c2180000c2180000c218000070
:10002800c2180000c2180000c2180000941800008e
:10003800c2180000c2180000c2180000c218000050
:10004800c2180000c2180000c2180000c218000040
:10005800c2180000c2180000c2180000c218000030
:10006800c2180000c2180000c2180000c218000020
:10007800c2180000c2180000c2180000c218000010
:10008800c2180000c2180000c2180000c218000000
:10009800c2180000c2180000c2180000c2180000f0
:1000a800c2180000c2180000c2180000c2180000e0
:1000b800c2180000c2180000c2180000c2180000d0
:1000c800c2180000c2180000c2180000c2180000c0
:1000d800c2180000c2180000c2180000c2180000b0
:1000e800c2180000c2180000c2180000c2180000a0
:1000f800c2180000c2180000c2180000c218000090
:10010800c2180000c2180000c2180000c21800007f
:10011800c2180000c2180000c2180000c21800006f
:10012800c2180000c2180000c2180000c21800005f
:10013800c2180000c2180000c2180000c21800004f
:10014800c2180000c2180000c2180000c21800003f
:10015800c2180000c2180000c2180000c21800002f
:10016800c2180000c2180000c2180000c21800001f
:10017800c2180000c2180000c2180000c21800000f
:10018800c2180000c2180000c2180000c2180000ff
:10019800c2180000c2180000c2180000c2180000ef
:1001a800c2180000c2180000c2180000c2180000df
:1001b800c2180000c2180000c2180000c2180000cf
:1001c800c2180000c2180000c2180000c2180000bf
:1001d800c2180000c2180000c2180000c2180000af
:1001e800c2180000c2180000c2180000c21800009f
:0801f800c2180000c21800004b
:020000040000fa
:10020800c2180000c2180000c2180000c21800007e
:10021800c2180000c2180000c2180000c21800006e
:10022800c2180000c2180000c2180000941800008c
:10023800c2180000c2180000c2180000c21800004e
:10024800c2180000c2180000c2180000c21800003e
:10025800c2180000c2180000c2180000c21800002e
:10026800c2180000c2180000c2180000c21800001e
:10027800c2180000c2180000c2180000c21800000e
:10028800c2180000c2180000c2180000c2180000fe
:10029800c2180000c2180000c2180000c2180000ee
:1002a800c2180000c2180000c2180000c2180000de
:1002b800c2180000c2180000c2180000c2180000ce
:1002c800c2180000c2180000c2180000c2180000be
:1002d800c2180000c2180000c2180000c2180000ae
:1002e800c2180000c2180000c2180000c21800009e
:1002f800c2180000c2180000c2180000c21800008e
:10030800c2180000c2180000c2180000c21800007d
:10031800c2180000c2180000c2180000c21800006d
:10032800c2180000c2180000c2180000c21800005d
:10033800c2180000c2180000c2180000c21800004d
:10034800c2180000c2180000c2180000c21800003d
:10035800c2180000c2180000c2180000c21800002d
:10036800c2180000c2180000c2180000c21800001d
:10037800c2180000c2180000c2180000c21800000d
:10038800c2180000c2180000c2180000c2180000fd
:10039800c2180000c2180000c2180000c2180000ed
:1003a800c2180000c2180000c2180000c2180000dd
:1003b800c2180000c2180000c2180000c2180000cd
:1003c800c2180000c2180000c2180000c2180000bd
:1003d800c2180000c2180000c2180000c2180000ad
:1003e800c2180000c2180000c2180000c21800009d
:0803f800c2180000c218000049
:020000040000fa
:1021f8000000fa00c042a900c062a900c082a9007c
:10220800c962a90042c7a900002021001036880031
:102218003001200020368800004021003036880038
:1022280042c7a8000080fa00000006000200fa0079
:1022380050012000403a880060022000303a8800af
:1022480044c7bf00f043b20044e7b7004174200020
:102258009140780000ceb30000c0600044e7b700aa
:10226800c442a900c462a9000000eb00000f780076
:1022780003003700c462a800c462a9001e0fe8006a
:10228800f00020009e0f1000faff3400c482a8005e
:10229800c482a9000080fa00000006000400fa00c9
:1022a800001920001007980000222800000f78006d
:1022b8009e0090001e00780098ff07009aff070014
:1022c8000041eb0081c7b300a0c0b300660207005d
:1022d8000041eb008040eb00c0c0b3006202070081
:1022e8000041eb00f1c1b300d0c0b3005e020700ab
:1022f8000041eb008040eb0020c0b3005a02070009
:102308000041eb008040eb0030c0b30056020700ec
:102318000041eb008040eb0020c1b30052020700ef
:102328000041eb008040eb0030c1b3004e020700d3
:102338000041eb008040eb000040eb004a02070040
:102348000041eb00f1c1b30010c0b3004602070022
:102358000080fa00000006000000fa00f102070001
:10236800f00020004003070000c3b300c7020700c5
:10237800500020003c03070000c3b300c30207005d
:10238800100020003803070000c3b300bf02070095
:10239800100020003403070080c3b300bb0207000d
:1023a800100020003003070080c1b300b702070007
:1023b800c0c0b300b502070010c0b300b3020700e5
:1023c80060c0b300b10207000080fa0000000600f8
:1023d8000000fa008461a9004118200091407800ab
:1023e80080cfb30000c060006040b30084e1b70054
:1023f8000000eb00000c88008a61a900a1182000e9
:102408009140780080cfb30000c060006040b30006
:102418008ae1b7000000eb00300c88009061a90049
:10242800011920009140780080cfb30000c06000ff
:102438006040b30090e1b7000000eb00600c88003a
:102448001061a9000111200091407800f0ccb30080
:1024580000c0600001c2b3000140700010e1b70085
:102468001021a90010c1a9000010200060088800f0
:1024780011e1a8001e61a900e11120009140780037
:10248800f0ccb30000c060000044a0001ee1b7001b
:102498001e21a9001ec1a900401f2000d0088800e5
:1024a8001fe1a8000080fa00000006000000fa0002
:1024b8001061a9000111200091407800f0ccb30010
:1024c80000c0600010e1b7001021a90010c1a900e8
:1024d80094e0a80084e0a900803e200060088800fd
:1024e80081e0a800710a20009140780000c7b3007d
:1024f80000c07000a7e0b70011e1a8000080fa0052
:10250800000006000000fa000000eb002008880028
:102518008460a900510a200091407800f0c8b300f7
:1025280000c0600001c6b30001407000a5e0b7001c
:102538009460a8000000eb00000888000080eb0011
:102548001008880005e1a8000080fa0000000600d5
:102558000000fa00108028000011880000402000c8
:102568001011880040012000401188000080fa0006
:10257800000006000000fa000080eb0060198800e7
:102588002c03a9002c23a9002c43a9002c63a90023
:102598002c83a9002143a90023c3bf007f4060000a
:1025a80023e3b70025e3a90030c0b30024e3b70054
:1025b800513220009140780000ceb30000c0600086
:1025c800f040b30025e3b700313220009140780095
:1025d800c0cfb30000c0600023e3b7002043a900c8
:1025e80020c3bf007f40600020e3b7001132200005
:1025f80091407800c0cfb30000c060000004a00084
:1026080021e3b70021e3a8000080fa0000000600db
:102618000000fa000080eb00601988002c03a90074
:102628002c23a9002c43a9002c63a9002143a9004d
:1026380023c3bf007f40600023e3b70025e3a90060
:1026480030c0b30024e3b700513220009140780035
:1026580000ceb30000c06000f040b30025e3b7002f
:1026680028e3a900813220009140780000ceb30011
:1026780000c060000014a00028e3b7003132200039
:1026880091407800c0cfb30000c0600023e3b700da
:102698002043a800013220009140780000ceb3000a
:1026a80000c0700020e3b70011322000914078008c
:1026b800c0cfb30000c060000004a00021e3b70051
:1026c80021e3a8000080fa00000006000000fa00dc
:1026d8004ba7a9004ae7a8004bc7bf007040b3004a
:1026e8004be7b700013f20009140780000c8b300d5
:1026f80000c060003040b300f0e3b7000000eb001a
:10270800a01f8800f103a800f3e3a800f2e3a800e3
:10271800f1e3a8000080fa00000006000000fa00bb
:1027280021e3a900c0ff21006019880023c3bf006e
:102738007f40600023e3b700a0c0b30024e3b700e4
:1027480025e3a9003132200091407800c0cfb300c2
:1027580000c0600023e3b70028e3a900013220008d
:102768009140780000ceb30000c0700020e3b700ad
:10277800513220009140780000ceb30000c06000c4
:10278800a040b30025e3b700113220009140780043
:10279800c0cfb30000c060000004a00021e3b70070
:1027a8002043a8002143a80021e3a8000080fa00e4
:1027b800000006000000fa00f1e3a9004ba7a900f9
:1027c8004ae7a8004bc7bf007040b3004be7b7000b
:1027d800013f20009140780000c8b30000c06000ad
:1027e8003040b300f0e3b7000000eb00a01f880002
:1027f800f103a800f3e3a800f2e3a800f1e3a800be
:102808000080fa00000006000200fa00000f7800bd
:1028180028e3a9001e0078007f4060007f41600027
:10282800813220009140780000ceb30000c06000e3
:102838000240700028e3b7002023a800a000200071
:10284800200207002023a90020c3bf0061406000c8
:102858000004e000fcff3200001880000080fa004d
:10286800000006000400fa00000f78001107980025
:102878001e007800c01f88001e009000b01f88004e
:102888000080fa00000006000800fa00100798000f
:1028980021079800320798000000eb00000f78002d
:1028a80011003700be0090001e0078000088b900b3
:1028b8004781de00ae0090001e0078000088b90055
:1028c800c781de009e0090001e0078000088b900d5
:1028d8004780de00830078001e00070050002000bb
:1028e800e10107001e0fe800f00720009e0f10000e
:1028f800ecff3400f0072000000f780011003700cb
:10290800be0090001e0078000088b9004781de00f4
:10291800ae0090001e0078000088b900c781de0074
:102928009e0090001e0078000088b9004780de00f5
:10293800830078000700070050002000ca01070044
:102948001e0fe9001e00e000edff3c000080fa00c9
:10295800000006000600fa00000f78001107980032
:10296800220798001e007800000c88001e009000c6
:10297800300c88002e009000600c88000080fa005f
:10298800000006000400fa0010079800c462a900bd
:10299800c482a9000040eb00004f78000d0037000a
:1029a800c462a800c462a9001e0090006100600013
:1029b8000004e00002003200c442a8000100370011
:1029c800c442a9001e0090000000d1001007980022
:1029d8001e4fe80000c1b3009e4f1000f0ff360004
:1029e800c482a800c482a9000080fa000000060082
:1029f8000c00fa0020079800310798002e0090007c
:102a0800400798004e009000e40f50002300320069
:102a18004e009000e40f50000a003e004e00900067
:102a2800e20f5000170032004e009000e20f5000f5
:102a380017003e004e009000e10f50000e003200db
:102a4800250037004e009000e60f500019003200b4
:102a58004e009000e60f5000130039004e00900021
:102a6800e70f5000160032004e009000e80f5000ab
:102a780016003200180037000000280010079800e0
:102a88001700370000002a001007980014003700cc
:102a980000802a00100798001100370000a02a00c3
:102aa800100798000e00370000a82a0010079800a9
:102ab8000b00370000aa2a0010079800080037000a
:102ac80080aa2a001007980005003700a0aa2a004b
:102ad80010079800020037000000eb00100798006c
:102ae8003e009000500798005e009000e40f5000f0
:102af800230032005e009000e40f50000a003e0000
:102b08005e009000e20f5000170032005e00900057
:102b1800e20f500017003e005e009000e10f5000e9
:102b28000e003200250037005e009000e60f5000ce
:102b3800190032005e009000e60f500013003900c3
:102b48005e009000e70f5000160032005e00900013
:102b5800e80f50001600320018003700000024006b
:102b6800000f78001700370000002500000f7800dc
:102b78001400370000402500000f780011003700ce
:102b880000502500000f78000e0037000054250083
:102b9800000f78000b00370000552500000f780063
:102ba8000800370040552500000f78000500370061
:102bb80050552500000f7800020037000000eb0098
:102bc800000f78001e0090001e0070006dff0700c7
:102bd8000080fa00000006000000fa00c962a9009f
:102be8000080fa00000006000200fa00004f78009a
:102bf80023c2bf00624060000004e000fcff3a000e
:102c08001e00fb00201188000080fa00000006006a
:102c18000200fa00000f7800040037001e00780058
:102c2800104078001e0fe800efff07001e00780034
:102c3800104078000004e000f8ff3a000080fa0035
:102c4800000006000000fa0022c2bf0061406000d8
:102c58000004e000fcff3200301180000000fb009f
:102c68000080fa00000006000400fa00004f780017
:102c780011479800224798003efd070006c2bf0092
:102c8800614060000004e000fcff3a002e40900024
:102c980001c4b3000140700038fd07002c00070094
:102ca8001e40780035fd0700290007001e409000ef
:102cb80032fd0700260007003efd070006c2bf00e0
:102cc800644060000004e000fcff3a000080fa0065
:102cd800000006000400fa002047980031479800d9
:102ce80024fd070006c2bf00614060000004e00048
:102cf800fcff3a00be40900000c4b30000c0700062
:102d08001efd0700120007002e4090001bfd070063
:102d18000f00070029fd070003fd0700be409000d3
:102d280010c4b30000c0700014fd070008000700bd
:102d380024fd0700004f78002afd07001dfd07004d
:102d4800f9fc07001e80fb000080fa000000060066
:102d58000000fa0008c2bf00614060000004e00003
:102d6800fcff3a0009c2bf000044b2000004e000c2
:102d7800fcff3a0009c2bf0001c8b300014060006f
:102d88000004e000fbff3a000080fa0000000600a3
:102d98000400fa008040eb0030c1b300cdff07000b
:102da8000080fb00100798000000eb00000f78007f
:102db8001e0090004400de00610060000000e0009a
:102dc80001003a001e00a0001e0090004300de0033
:102dd800610060000000e00001003a001e10a00041
:102de8001e0090004200de00610060000000e0006c
:102df80001003a001e20a0001e0090000000d10033
:102e0800610060000000e00001003a001e30a000f0
:102e18001e009000610060000000e00001003a0020
:102e28001e40a0001e0078000080fb000080fa0011
:102e3800000006000400fa00100798003900070097
:102e48000040eb00004f7800070037001e80fb00b1
:102e5800800078001e00900000804000104078003c
:102e68001a0007001e4fe8001e80fb008000780053
:102e78001e00900000804000104078000004e00030
:102e8800f2ff3a000080fa00000006000200fa0093
:102e9800004f78000041eb0001c4b30030c1b3001b
:102ea80071ff07000041eb009e40780020c1b3008d
:102eb8006dff07000041eb008040eb0030c1b3001c
:102ec80069ff07000080fa00000006000200fa000f
:102ed800004f7800a0c0b3009e4f100003003a00d6
:102ee80000ccb300e9ff07000c0037000041eb00fd
:102ef80001ccb30030c1b3005bff07000041eb0019
:102f08009e40780020c1b30057ff07000041eb0046
:102f180001c8b30030c1b30053ff07000080fa00b6
:102f2800000006000000fa0010c0b300d7ff070039
:102f380060c0b300d5ff07000080fa00000006005b
:102f48000000fa0080c0b300d0ff07001000200086
:102f5800450007000080fa00000006000200fa00a1
:102f6800000f7800efff07001e007800020007003e
:102f78000080fa00000006000200fa00000f780046
:102f8800040037001e007800104078001e0fe8008b
:102f9800ceff07001e007800104078000004e00013
:102fa800f8ff3a000080fa00000006000200fa006c
:102fb800004f78001e4078006f4060000043b0006a
:102fc800004f780090c3b3009e4f100004003600f5
:102fd8001e40780067404000104798000200370004
:102fe8001e407800104798001e409000b7ff070069
:102ff8000080fa00000006000200fa00004f780086
:103008001e80fb004400de00e8ff07001e40780039
:10301800e6ff07000080fa00000006000200fa0040
:10302800000f78001e0078004800de00f2ff07005d
:103038001e007800f0ff07000080fa00000006007c
:103048000400fa00008fbe001e00be004008de002b
:1030580001002000f1ff07001e007800efff0700c5
:103068000080fa00000006000600fa002007980019
:103078000c00370090e2200001002000008fbe0005
:10308800040037000080eb008080eb001e0f40003a
:103098005e9748001e00be00e00f5000e08f580009
:1030a800f8ff3a002e0090000000e9002007980081
:1030b8002e009000e10f4000eeff3a000080fa0079
:1030c800000006000600fa00200798000c003700f0
:1030d8004000200001002000008fbe0004003700df
:1030e8000080eb008080eb001e0f40005e974800d8
:1030f8001e00be00e00f5000e08f5800f8ff3a00b5
:103108002e0090000000e900200798002e00900093
:10311800e10f4000eeff3a000080fa0000000600d0
:10312800801f78000000fa008460a90005e1a9006a
:103138000000eb000008880005e1a8000080fa0004
:103148004f007800004006000000fa0028fc070045
:1031580036fc07000000eb000afe0700401f2000b5
:10316800c1ff07000080eb0006fe0700401f20009b
:08317800bdff0700f7ff37005f
:020000040000fa
:04318000000000004b
:020000040000fa
:043184000000fe0049
:00000001FF
