:020000040000fa
:080000000210040000000000e2
:020000040000fa
:10200000040000002f682400007f240000018800e5
:10201000000000000c00070020dc2100010020006f
:1020200011000700000020000000e0000200320064
:102030000000020000000000d01c020000000000b0
:102040000040da000000fe004440a900000020002b
:102050000000e0000300320000002000a001880022
:102060004440a8000000060091018800800078002c
:102070000000eb0015003700e280400032a0b40001
:102080009101ba00e280400032a0b4009102ba008f
:10209000e280400032a0b4000002eb00472bde00db
:1020a000f507b200602ce10004003a000059eb0093
:1020b0008301e900fdff3e00040037006128e100d4
:1020c000010032000082eb00040007001101ba0099
:1020d0000200e000e8ff3a00000006003159ba00b3
:1020e0008301e9000c0032002159ba008301e900a4
:1020f000080032000400e00003003a00e2804000e3
:1021000032a0b400f5ff370011d9ba008301e9000d
:10211000faff3a008100e800e180400032a0b400fc
:1021200000000600889fbe008a9fbe00010578005f
:102130000100e0000400350008003c000000e00061
:10214000200032000500370060001000e080180019
:1021500002003b0001f02c001a0037000004be0012
:102160006011b8006b0920000982cf00020039001d
:102170000882cf000441b000694252000e003200d4
:1021800008003b0082817100610164008904d10074
:102190000884d3008b05e8000442e800f9ff3a0008
:1021a000050037000804440089844c008b05e900d1
:1021b0000442e900fbff3a009e0007000af0a70076
:1021c00001f0a0004f05be004f04be000000060055
:1021d000889fbe008a9fbe008c1f7800bb0007004e
:1021e000c200330003866c006450e100240032001a
:1021f0006420e100270032006150e100220032003b
:102200006120e100210032008b854200eb07b10024
:102210000134b800003ab8000804420089844a003a
:10222000013ab8000030b8008880400009014a0037
:102230000400330000004000818048000201490092
:102240008b05e900c909dd0083017000010032003f
:1022500013002000c814de004814dd004709de002a
:102260001200b200c808de00088470007100070088
:1022700001f0a1000cf0a70001f0a000a4003700bd
:102280006120e100a60032000801be000200be008d
:10229000f7ff37006150e100fcff3a00a000370073
:1022a000889fbe008a9fbe008c1f780087000700b1
:1022b0008e00330003866c006450e1002e00320073
:1022c0006420e100330032006150e1002f00320051
:1022d0006120e1003100320085855500eb07b00038
:1022e000090020000804200005003700080444000d
:1022f00089844c000a0031000603430087834b00a9
:102300000001530081815b00f8ff33000203be002f
:102310000800a0000804440089844c00f6ff39003e
:10232000c639dd0083017300010032001300200074
:102330008904d1000884d3000998a3000500320065
:102340000800a7000300a0008904d1000884d3007e
:102350008b05e8008904d1000884d3000001eb005c
:102360000281d2003300070001f0a1000cf0a700a9
:1023700001f0a000660037006420e1006800320030
:102380000801be000200be00f7ff37006120e10037
:10239000630032006000b800f3ff37000000200047
:1023a00001f82700f0ff37000001eb005f00370065
:1023b0000001be00c60007000470a70003f0a100e2
:1023c0006509b100160032000d0035006828e100f3
:1023d00006003500f0ff2f00f1ff27000300e000aa
:1023e00013003b0001002800000005000000400031
:1023f000818048008502e900fcff3a0008003700b0
:10240000f88f420002003c008000eb000000050055
:102410008100d1000080d3008502e800fcff3a0073
:102420000300e00002003b0060001000e0801800a4
:102430000000060081002000618055000b003d0077
:102440000b00200061fe2f000100e1001d003400a0
:1024500082817100610164008904d1000884d30085
:102460000000e800faff3a007100200061006400fb
:1024700003007000020060000900320061044400a3
:10248000e0844c000988a500050032008b05e800b7
:102490006808e10002003a008904d1000884d300f2
:1024a000f20f20000258e10005003d00c75ddd008d
:1024b000f907b20089807500080078000000060066
:1024c0000bf827008b007800000005000004be0018
:1024d0007f0007000003be000405be000200be002e
:1024e0007b000700844f7500000006000200be005c
:1024f0006450e100050036006420e100020036006f
:102500000968a30001003a000800be000160a000b5
:102510004f0678004f05be004f04be0000000600c5
:10252000f0ff2f00f1ff2700f9ff3700889fbe0062
:102530008a9fbe008c9fbe00820578000004be000a
:10254000630007000800be006420e10007003900b6
:1025500002003a00f1ff2700f0ff2f000160a00009
:102560001202200002408800550037006120e1007f
:1025700003003a000b00a70001f8230050003700c9
:1025800001f0a1000200210093642400650007000f
:102590000800be0004003500b2fd2000930c2400aa
:1025a000620007000004be000005eb000b00a6005f
:1025b0004f0dde0001f0a1000004be0032982f0094
:1025c00023ea230002ff07000001eb0003f02300d1
:1025d0000b00a70003f823005700070074ff070053
:1025e0000000a7000a00a200cefe07000b00e000da
:1025f000030032000200200003f023004d0007001a
:1026000001f0a2000006be00020020009304240096
:10261000effe07000801be0047000700809fbe00d4
:102620000c00be0022a22a00d3a72300e8fe070068
:102630004f01be00400007000004be0001f0a100f1
:102640000200200003982300360007000800be00a7
:10265000190035000001be00ddfe07000006be00c7
:10266000b2c52900e3622300d9fe070022222b0015
:10267000f3942b00300007000c01be00d4fe0700cd
:10268000e273280083c023002b0007000c01be006a
:10269000cffe070042aa2a00a3e22b002600070073
:1026a0000c01be00cafe07000801be00c8fe0700fc
:1026b0000801be00200007000a00a70001f0a200e8
:1026c0004f06be004f05be004f04be0000000600ce
:1026d000c70ade00f107b200f50fb20008003200b1
:1026e000e1cf4200020032000170a000240005008a
:1026f000810f70000100320004080500440005004d
:10270000810f700002003a00140005008502e90004
:102710000000400081c04800fcff3b000170a000a9
:102720002400050014002000600037000400200091
:102730007900370003f0a200889fbe008a9fbe0088
:102740008c1f780061ff070068ff33006450e100d0
:102750004f0032006420e1005200320003826c001e
:1027600007003b000905d0000306d000820f54008b
:102770000c065d0002003900020032008901780079
:10278000030678008582550004003d000003fd002b
:102790008103fd008502ea008b854200840f7200f0
:1027a00002003b0060001000e08018006011b800db
:1027b0000005eb007a28e1000a00390006007800e5
:1027c000c75ddd00f707b200878075002d00370078
:1027d000828171000a017800610560008180d1006a
:1027e0000080d3008502e900f9ff3b0006044000a9
:1027f0008784480002003b0060041400e0841c0051
:102800000988a300070032008a817100828171006b
:10281000610164008904d1000884d3008b05e800bd
:10282000170037000978a30013003a000b00e000fe
:10283000130034008b05e9000804440089844c002f
:102840000a4474000978a3000d003a000b00e00070
:10285000070034008b05e9000804440089844c001b
:1028600001003a000b0020000978a300f7ff3200b6
:102870000001eb0002003700828171000a0178003c
:10288000ecfe07000cf0a70001f0a00020ff3700cd
:102890006420e10002003a00838f6c0020ff3300c7
:1028a0000801be000200be0019ff3700889fbe006d
:1028b0008a9fbe00841f780004ff07004f00780045
:1028c00011003300f0ff2f00838f6c0006003b00e7
:1028d000040565000a00a7000800370009f0a600fb
:1028e0001000200008003700820f5400838f5c0026
:1028f000030039001000200001003e00000020000d
:1029000009f0a7000000ea004f05be004f04be001a
:102910000000e00000000600889fbe008a9fbe0005
:102920008c1f78004f26dd00e8fe0700effe330025
:102930006120e100430032006250e10041003e00ae
:102940003e0039006420e1003c0032000582550061
:102950000f003b000402e80038003a00800f5300eb
:10296000818f5b00350034000800be0003f0a10039
:1029700001f0a60003f0a0000cf0a7006eff070016
:10298000e3fe37000603430087834b000c464600f6
:102990000005530081855b00020033000a03be007e
:1029a0000c00a0000402e900f6ff3b00850578005a
:1029b0000602430087824b0004003a006000b80022
:1029c00009f0a70001f0a000d1fe3700000252007c
:1029d00081825a000704e00004003300060343002c
:1029e00087834b008b05e900faff37000905780063
:1029f0000604be000203be006011b8008dfe070091
:102a0000e00f5200e08f5a000700350002003c0042
:102a10000c08a300040032000601be0003f0a00071
:102a20000cf0a70044ff07000a85680001f0a10030
:102a30000af0a70001f0a000b5fe37000800be00b4
:102a4000b3fe3700100220000cf0a6000040880002
:102a5000b3fe370021108800301088000000060007
:102a600006c2bf000008a300fdff3a0006c2bf0077
:102a70000028a300faff3a0006c2bf000038a300f6
:102a8000f7ff3a0006c2bf000018a300f4ff3a00a7
:102a900006c2bf000048a300f1ff3a0009c2bf0010
:102aa0000068a300eeff3a00000006000602a8003e
:102ab000000006000080fb00101088000080eb0082
:102ac0000842e2000800350009c2bf000068a30008
:102ad000fdff3a00e2ff0700e0ff2f000942e2009d
:102ae000010035000000eb00000006000642a800cf
:102af000000006000622a800000006000662a800ea
:102b000006c2bf000038a300fdff3a0008c2a900ba
:102b1000001080000080fb000000060006a2a80054
:082b20000682a8000000060077
:020000040000fa
:0200000401f009
:04000000ffff0000fe
:020000040000fa
:0200000401f009
:04000400ffff0000fa
:020000040000fa
:0200000401f009
:04000800ffff0000f6
:020000040000fa
:0200000401f009
:04000c0079ff000078
:020000040000fa
:0200000401f009
:040010009bff000052
:020000040000fa
:0200000401f009
:040014007fff00006a
:020000040000fa
:0200000401f009
:04001800eeff0000f7
:020000040000fa
:0200000401f009
:04001c00deff000003
:020000040000fa
:10000800d01d0000d01d0000d01d0000d01d000034
:10001800d01d0000d01d0000d01d0000d01d000024
:10002800d01d0000d01d0000d01d0000ae1d000036
:10003800d01d0000d01d0000d01d0000d01d000004
:10004800d01d0000d01d0000d01d0000d01d0000f4
:10005800d01d0000d01d0000d01d0000d01d0000e4
:10006800d01d0000d01d0000d01d0000d01d0000d4
:10007800d01d0000d01d0000d01d0000d01d0000c4
:10008800d01d0000d01d0000d01d0000d01d0000b4
:10009800d01d0000d01d0000d01d0000d01d0000a4
:1000a800d01d0000d01d0000d01d0000d01d000094
:1000b800d01d0000d01d0000d01d0000d01d000084
:1000c800d01d0000d01d0000d01d0000d01d000074
:1000d800d01d0000d01d0000d01d0000d01d000064
:1000e800d01d0000d01d0000d01d0000d01d000054
:1000f800d01d0000d01d0000d01d0000d01d000044
:10010800d01d0000d01d0000d01d0000d01d000033
:10011800d01d0000d01d0000d01d0000d01d000023
:10012800d01d0000d01d0000d01d0000d01d000013
:10013800d01d0000d01d0000d01d0000d01d000003
:10014800d01d0000d01d0000d01d0000d01d0000f3
:10015800d01d0000d01d0000d01d0000d01d0000e3
:10016800d01d0000d01d0000d01d0000d01d0000d3
:10017800d01d0000d01d0000d01d0000d01d0000c3
:10018800d01d0000d01d0000d01d0000d01d0000b3
:10019800d01d0000d01d0000d01d0000d01d0000a3
:1001a800d01d0000d01d0000d01d0000d01d000093
:1001b800d01d0000d01d0000d01d0000d01d000083
:1001c800d01d0000d01d0000d01d0000d01d000073
:1001d800d01d0000d01d0000d01d0000d01d000063
:1001e800d01d0000d01d0000d01d0000d01d000053
:0801f800d01d0000d01d000025
:020000040000fa
:10020800d01d0000d01d0000d01d0000d01d000032
:10021800d01d0000d01d0000d01d0000d01d000022
:10022800d01d0000d01d0000d01d0000ae1d000034
:10023800d01d0000d01d0000d01d0000d01d000002
:10024800d01d0000d01d0000d01d0000d01d0000f2
:10025800d01d0000d01d0000d01d0000d01d0000e2
:10026800d01d0000d01d0000d01d0000d01d0000d2
:10027800d01d0000d01d0000d01d0000d01d0000c2
:10028800d01d0000d01d0000d01d0000d01d0000b2
:10029800d01d0000d01d0000d01d0000d01d0000a2
:1002a800d01d0000d01d0000d01d0000d01d000092
:1002b800d01d0000d01d0000d01d0000d01d000082
:1002c800d01d0000d01d0000d01d0000d01d000072
:1002d800d01d0000d01d0000d01d0000d01d000062
:1002e800d01d0000d01d0000d01d0000d01d000052
:1002f800d01d0000d01d0000d01d0000d01d000042
:10030800d01d0000d01d0000d01d0000d01d000031
:10031800d01d0000d01d0000d01d0000d01d000021
:10032800d01d0000d01d0000d01d0000d01d000011
:10033800d01d0000d01d0000d01d0000d01d000001
:10034800d01d0000d01d0000d01d0000d01d0000f1
:10035800d01d0000d01d0000d01d0000d01d0000e1
:10036800d01d0000d01d0000d01d0000d01d0000d1
:10037800d01d0000d01d0000d01d0000d01d0000c1
:10038800d01d0000d01d0000d01d0000d01d0000b1
:10039800d01d0000d01d0000d01d0000d01d0000a1
:1003a800d01d0000d01d0000d01d0000d01d000091
:1003b800d01d0000d01d0000d01d0000d01d000081
:1003c800d01d0000d01d0000d01d0000d01d000071
:1003d800d01d0000d01d0000d01d0000d01d000061
:1003e800d01d0000d01d0000d01d0000d01d000051
:0803f800d01d0000d01d000023
:020000040000fa
:102b28000000fa00c042a900c062a900c082a90042
:102b3800c962a90042c7a9000020210010368800f8
:102b480030012000203688000040210030368800ff
:102b580042c7a8000080fa00000006000200fa0040
:102b680050012000403a880060022000303a880076
:102b780044c7bf00f043b20044e7b70041742000e7
:102b88009140780000ceb30000c0600044e7b70071
:102b9800c442a900c462a9000000eb00000f78003d
:102ba80003003700c462a800c462a9001e0fe80031
:102bb800f00020009e0f1000faff3400c482a80025
:102bc800c482a9000080fa00000006000400fa0090
:102bd800001920001007980000222800000f780034
:102be8009e0090001e00780098ff07009aff0700db
:102bf8000041eb0081c7b300a0c0b3006602070024
:102c08000041eb008040eb00c0c0b3006202070047
:102c18000041eb00f1c1b300d0c0b3005e02070071
:102c28000041eb008040eb0020c0b3005a020700cf
:102c38000041eb008040eb0030c0b30056020700b3
:102c48000041eb008040eb0020c1b30052020700b6
:102c58000041eb008040eb0030c1b3004e0207009a
:102c68000041eb008040eb000040eb004a02070007
:102c78000041eb00f1c1b30010c0b30046020700e9
:102c88000080fa00000006000000fa00f1020700c8
:102c9800f00020008103070000c3b300c70207004b
:102ca800500020007d03070000c3b300c3020700e3
:102cb800100020007903070000c3b300bf0207001b
:102cc800100020007503070080c3b300bb02070093
:102cd800100020007103070080c1b300b70207008d
:102ce800c0c0b300b502070010c0b300b3020700ac
:102cf80060c0b300b10207000080fa0000000600bf
:102d08000000fa008461a900411820009140780071
:102d180080cfb30000c060006040b30084e1b7001a
:102d28000000eb00000c88008a61a900a1182000af
:102d38009140780080cfb30000c060006040b300cd
:102d48008ae1b7000000eb00300c88009061a90010
:102d5800011920009140780080cfb30000c06000c6
:102d68006040b30090e1b7000000eb00600c880001
:102d78001061a9000111200091407800f0ccb30047
:102d880000c0600001c2b3000140700010e1b7004c
:102d98001021a90010c1a9000010200060088800b7
:102da80011e1a8001e61a900e111200091407800fe
:102db800f0ccb30000c060000044a0001ee1b700e2
:102dc8001e21a9001ec1a900401f2000d0088800ac
:102dd8001fe1a8000080fa00000006000000fa00c9
:102de8001061a9000111200091407800f0ccb300d7
:102df80000c0600010e1b7001021a90010c1a900af
:102e080094e0a80084e0a900803e200060088800c3
:102e180081e0a800710a20009140780000c7b30043
:102e280000c07000a7e0b70011e1a8000080fa0018
:102e3800000006000000fa000000eb0020088800ef
:102e48008460a900510a200091407800f0c8b300be
:102e580000c0600001c6b30001407000a5e0b700e3
:102e68009460a8000000eb00000888000080eb00d8
:102e78001008880005e1a8000080fa00000006009c
:102e88000000fa001080280000118800004020008f
:102e98001011880040012000401188000080fa00cd
:102ea800000006000000fa000080eb0060198800ae
:102eb8002c03a9002c23a9002c43a9002c63a900ea
:102ec8002c83a9002143a90023c3bf007f406000d1
:102ed80023e3b70025e3a90030c0b30024e3b7001b
:102ee800513220009140780000ceb30000c060004d
:102ef800f040b30025e3b70031322000914078005c
:102f0800c0cfb30000c0600023e3b7002043a9008e
:102f180020c3bf007f40600020e3b70011322000cb
:102f280091407800c0cfb30000c060000004a0004a
:102f380021e3b70021e3a8000080fa0000000600a2
:102f48000000fa000080eb00601988002c03a9003b
:102f58002c23a9002c43a9002c63a9002143a90014
:102f680023c3bf007f40600023e3b70025e3a90027
:102f780030c0b30024e3b7005132200091407800fc
:102f880000ceb30000c06000f040b30025e3b700f6
:102f980028e3a900813220009140780000ceb300d8
:102fa80000c060000014a00028e3b7003132200000
:102fb80091407800c0cfb30000c0600023e3b700a1
:102fc8002043a800013220009140780000ceb300d1
:102fd80000c0700020e3b700113220009140780053
:102fe800c0cfb30000c060000004a00021e3b70018
:102ff80021e3a8000080fa00000006000000fa00a3
:103008004ba7a9004ae7a8004bc7bf007040b30010
:103018004be7b700013f20009140780000c8b3009b
:1030280000c060003040b300f0e3b7000000eb00e0
:10303800a01f8800f103a800f3e3a800f2e3a800aa
:10304800f1e3a8000080fa00000006000000fa0082
:1030580021e3a900c0ff21006019880023c3bf0035
:103068007f40600023e3b700a0c0b30024e3b700ab
:1030780025e3a9003132200091407800c0cfb30089
:1030880000c0600023e3b70028e3a9000132200054
:103098009140780000ceb30000c0700020e3b70074
:1030a800513220009140780000ceb30000c060008b
:1030b800a040b30025e3b70011322000914078000a
:1030c800c0cfb30000c060000004a00021e3b70037
:1030d8002043a8002143a80021e3a8000080fa00ab
:1030e800000006000000fa00f1e3a9004ba7a900c0
:1030f8004ae7a8004bc7bf007040b3004be7b700d2
:10310800013f20009140780000c8b30000c0600073
:103118003040b300f0e3b7000000eb00a01f8800c8
:10312800f103a800f3e3a800f2e3a800f1e3a80084
:103138000080fa00000006000200fa00000f780084
:1031480028e3a9001e0078007f4060007f416000ee
:10315800813220009140780000ceb30000c06000aa
:103168000240700028e3b7002023a800a000200038
:10317800610207002023a90020c3bf00614060004e
:103188000004e000fcff3200001880000080fa0014
:10319800000006000400fa00000f780011079800ec
:1031a8001e007800c01f88001e009000b01f880015
:1031b8000080fa00000006000800fa0010079800d6
:1031c80021079800320798000000eb00000f7800f4
:1031d80011003700be0090001e0078000088b9007a
:1031e8004781de00ae0090001e0078000088b9001c
:1031f800c781de009e0090001e0078000088b9009c
:103208004780de00830078001e0007005000200081
:10321800220207001e0fe800f00720009e0f100092
:10322800ecff3400f0072000000f78001100370091
:10323800be0090001e0078000088b9004781de00bb
:10324800ae0090001e0078000088b900c781de003b
:103258009e0090001e0078000088b9004780de00bc
:103268008300780007000700500020000b020700c9
:103278001e0fe9001e00e000edff3c000080fa0090
:10328800000006000600fa00000f780011079800f9
:10329800220798001e007800000c88001e0090008d
:1032a800300c88002e009000600c88000080fa0026
:1032b800000006000400fa0010079800c462a90084
:1032c800c482a9000040eb00004f78000d003700d1
:1032d800c462a800c462a9001e00900061006000da
:1032e8000004e00002003200c442a80001003700d8
:1032f800c442a9001e0090000000d10010079800e9
:103308001e4fe80000c1b3009e4f1000f0ff3600ca
:10331800c482a800c482a9000080fa000000060048
:103328000c00fa0020079800310798002e00900042
:10333800400798004e009000e40f50002300320030
:103348004e009000e40f50000a003e004e0090002e
:10335800e20f5000170032004e009000e20f5000bc
:1033680017003e004e009000e10f50000e003200a2
:10337800250037004e009000e60f5000190032007b
:103388004e009000e60f5000130039004e009000e8
:10339800e70f5000160032004e009000e80f500072
:1033a80016003200180037000000280010079800a7
:1033b8001700370000002a00100798001400370093
:1033c80000802a00100798001100370000a02a008a
:1033d800100798000e00370000a82a001007980070
:1033e8000b00370000aa2a001007980008003700d1
:1033f80080aa2a001007980005003700a0aa2a0012
:1034080010079800020037000000eb001007980032
:103418003e009000500798005e009000e40f5000b6
:10342800230032005e009000e40f50000a003e00c6
:103438005e009000e20f5000170032005e0090001e
:10344800e20f500017003e005e009000e10f5000b0
:103458000e003200250037005e009000e60f500095
:10346800190032005e009000e60f5000130039008a
:103478005e009000e70f5000160032005e009000da
:10348800e80f500016003200180037000000240032
:10349800000f78001700370000002500000f7800a3
:1034a8001400370000402500000f78001100370095
:1034b80000502500000f78000e003700005425004a
:1034c800000f78000b00370000552500000f78002a
:1034d8000800370040552500000f78000500370028
:1034e80050552500000f7800020037000000eb005f
:1034f800000f78001e0090001e0070006dff07008e
:103508000080fa00000006000000fa00c962a90065
:103518000080fa00000006000200fa00004f780060
:1035280023c2bf00624060000004e000fcff3a00d4
:103538001e00fb00201188000080fa000000060031
:103548000200fa00000f7800040037001e0078001f
:10355800104078001e0fe800efff07001e007800fb
:10356800104078000004e000f8ff3a000080fa00fc
:10357800000006000000fa0022c2bf00614060009f
:103588000004e000fcff3200301180000000fb0066
:103598000080fa00000006000400fa00004f7800de
:1035a80011479800224798003efd070006c2bf0059
:1035b800614060000004e000fcff3a002e409000eb
:1035c80001c4b3000140700038fd07002c0007005b
:1035d8001e40780035fd0700290007001e409000b6
:1035e80032fd0700260007003efd070006c2bf00a7
:1035f800644060000004e000fcff3a000080fa002c
:10360800000006000400fa0020479800314798009f
:1036180024fd070006c2bf00614060000004e0000e
:10362800fcff3a00be40900000c4b30000c0700028
:103638001efd0700120007002e4090001bfd07002a
:103648000f00070029fd070003fd0700be4090009a
:1036580010c4b30000c0700014fd07000800070084
:1036680024fd0700004f78002afd07001dfd070014
:10367800f9fc07001e80fb000080fa00000006002d
:103688000000fa0008c2bf00614060000004e000ca
:10369800fcff3a0009c2bf000044b2000004e00089
:1036a800fcff3a0009c2bf0001c8b3000140600036
:1036b8000004e000fbff3a000080fa00000006006a
:1036c8000400fa008040eb0030c1b300cdff0700d2
:1036d8000080fb00100798000000eb00000f780046
:1036e8001e0090004400de00610060000000e00061
:1036f80001003a001e00a0001e0090004300de00fa
:10370800610060000000e00001003a001e10a00007
:103718001e0090004200de00610060000000e00032
:1037280001003a001e20a0001e0090000000d100f9
:10373800610060000000e00001003a001e30a000b7
:103748001e009000610060000000e00001003a00e7
:103758001e40a0001e0078000080fb000080fa00d8
:10376800000006000400fa0010079800390007005e
:103778000040eb00004f7800070037001e80fb0078
:10378800800078001e009000008040001040780003
:103798001a0007001e4fe8001e80fb00800078001a
:1037a8001e00900000804000104078000004e000f7
:1037b800f2ff3a000080fa00000006000200fa005a
:1037c800004f78000041eb0001c4b30030c1b300e2
:1037d80071ff07000041eb009e40780020c1b30054
:1037e8006dff07000041eb008040eb0030c1b300e3
:1037f80069ff07000080fa00000006000200fa00d6
:10380800004f7800a0c0b3009e4f100003003a009c
:1038180000ccb300e9ff07000c0037000041eb00c3
:1038280001ccb30030c1b3005bff07000041eb00df
:103838009e40780020c1b30057ff07000041eb000d
:1038480001c8b30030c1b30053ff07000080fa007d
:10385800000006000000fa0010c0b300d7ff070000
:1038680060c0b300d5ff07000080fa000000060022
:103878000000fa0080c0b300d0ff0700100020004d
:10388800860007000080fa00000006000200fa0027
:10389800000f7800efff07001e0078000200070005
:1038a8000080fa00000006000200fa00000f78000d
:1038b800040037001e007800104078001e0fe80052
:1038c800ceff07001e007800104078000004e000da
:1038d800f8ff3a000080fa00000006000200fa0033
:1038e800004f78001e4078006f4060000043b00031
:1038f800004f780090c3b3009e4f100004003600bc
:103908001e407800674040001047980002003700ca
:103918001e407800104798001e409000b7ff07002f
:103928000080fa00000006000200fa00004f78004c
:103938001e80fb004400de00e8ff07001e40780000
:10394800e6ff07000080fa00000006000200fa0007
:10395800000f78001e0078004800de00f2ff070024
:103968001e007800f0ff07000080fa000000060043
:103978000400fa00008fbe001e00be004008de00f2
:1039880001002000f1ff07001e007800efff07008c
:103998000080fa00000006000600fa00881f780080
:1039a8005ffc07006dfc0700d5fc070064fd0700fd
:1039b80092fd07000000eb00000f780015003700ab
:1039c8001e0478001e007800cf80de00d3f90700bf
:1039d800b2fd2000930c2400fbf907000200200030
:1039e800a35f24002cfa07006dfa070002002400e8
:1039f800c3612400f4f907006bfa0700000178009e
:103a080088004400208020000080400002087800e0
:103a18001e0fe800f0f321009e0f1000e8ff3400ad
:103a28000000eb00000f780003003700ae009000a4
:103a38002e009000d7fd070087c0bf0068406000d7
:103a48000004e000f9ff32008760a9000018800038
:103a58004021b000100798001e0090001e0f400083
:103a6800f0f321009e0f100002003400000c2e001d
:103a78001e0f40001e0078008000400020802000bb
:103a8800008040009000780021079800ae00900068
:103a98002e009000bffd0700e7ff37000600fa0080
:103aa800200798000c00370090e220000100200059
:103ab800008fbe00040037000080eb008080eb0020
:103ac8001e0f40005e9748001e00be00e00f500029
:103ad800e08f5800f8ff3a002e0090000000e9003f
:103ae800200798002e009000e10f4000eeff3a00fa
:103af8000080fa00000006000600fa00200798007f
:103b08000c0037004000200001002000008fbe009c
:103b1800040037000080eb008080eb001e0f40009f
:103b28005e9748001e00be00e00f5000e08f58006e
:103b3800f8ff3a002e0090000000e90020079800e6
:103b48002e009000e10f4000eeff3a000080fa00de
:103b580000000600801f78000000fa008460a900b9
:103b680005e1a9000000eb000008880005e1a800b5
:0c3b78000080fa004f00780000400600ba
:020000040000fa
:103b840002080000803e0000000000000008000061
:0c3b940002000000000000000000000023
:020000040000fa
:043ba0000000fe0023
:00000001FF
